{
  "contractName": "MvaV1Market",
  "abi": [
    {
      "inputs": [],
      "stateMutability": "nonpayable",
      "type": "constructor"
    },
    {
      "inputs": [
        {
          "internalType": "address",
          "name": "sender",
          "type": "address"
        },
        {
          "internalType": "uint256",
          "name": "tokenId",
          "type": "uint256"
        },
        {
          "internalType": "address",
          "name": "owner",
          "type": "address"
        }
      ],
      "name": "ERC721IncorrectOwner",
      "type": "error"
    },
    {
      "inputs": [
        {
          "internalType": "address",
          "name": "operator",
          "type": "address"
        },
        {
          "internalType": "uint256",
          "name": "tokenId",
          "type": "uint256"
        }
      ],
      "name": "ERC721InsufficientApproval",
      "type": "error"
    },
    {
      "inputs": [
        {
          "internalType": "address",
          "name": "approver",
          "type": "address"
        }
      ],
      "name": "ERC721InvalidApprover",
      "type": "error"
    },
    {
      "inputs": [
        {
          "internalType": "address",
          "name": "operator",
          "type": "address"
        }
      ],
      "name": "ERC721InvalidOperator",
      "type": "error"
    },
    {
      "inputs": [
        {
          "internalType": "address",
          "name": "owner",
          "type": "address"
        }
      ],
      "name": "ERC721InvalidOwner",
      "type": "error"
    },
    {
      "inputs": [
        {
          "internalType": "address",
          "name": "receiver",
          "type": "address"
        }
      ],
      "name": "ERC721InvalidReceiver",
      "type": "error"
    },
    {
      "inputs": [
        {
          "internalType": "address",
          "name": "sender",
          "type": "address"
        }
      ],
      "name": "ERC721InvalidSender",
      "type": "error"
    },
    {
      "inputs": [
        {
          "internalType": "uint256",
          "name": "tokenId",
          "type": "uint256"
        }
      ],
      "name": "ERC721NonexistentToken",
      "type": "error"
    },
    {
      "anonymous": false,
      "inputs": [
        {
          "indexed": true,
          "internalType": "address",
          "name": "owner",
          "type": "address"
        },
        {
          "indexed": true,
          "internalType": "address",
          "name": "approved",
          "type": "address"
        },
        {
          "indexed": true,
          "internalType": "uint256",
          "name": "tokenId",
          "type": "uint256"
        }
      ],
      "name": "Approval",
      "type": "event"
    },
    {
      "anonymous": false,
      "inputs": [
        {
          "indexed": true,
          "internalType": "address",
          "name": "owner",
          "type": "address"
        },
        {
          "indexed": true,
          "internalType": "address",
          "name": "operator",
          "type": "address"
        },
        {
          "indexed": false,
          "internalType": "bool",
          "name": "approved",
          "type": "bool"
        }
      ],
      "name": "ApprovalForAll",
      "type": "event"
    },
    {
      "anonymous": false,
      "inputs": [
        {
          "indexed": false,
          "internalType": "uint256",
          "name": "_fromTokenId",
          "type": "uint256"
        },
        {
          "indexed": false,
          "internalType": "uint256",
          "name": "_toTokenId",
          "type": "uint256"
        }
      ],
      "name": "BatchMetadataUpdate",
      "type": "event"
    },
    {
      "anonymous": false,
      "inputs": [
        {
          "indexed": false,
          "internalType": "uint256",
          "name": "_tokenId",
          "type": "uint256"
        }
      ],
      "name": "MetadataUpdate",
      "type": "event"
    },
    {
      "anonymous": false,
      "inputs": [
        {
          "indexed": true,
          "internalType": "uint256",
          "name": "tokenId",
          "type": "uint256"
        },
        {
          "indexed": false,
          "internalType": "uint256",
          "name": "price",
          "type": "uint256"
        }
      ],
      "name": "NFTPriceUpdated",
      "type": "event"
    },
    {
      "anonymous": false,
      "inputs": [
        {
          "indexed": true,
          "internalType": "uint256",
          "name": "tokenId",
          "type": "uint256"
        },
        {
          "indexed": false,
          "internalType": "bool",
          "name": "isForSale",
          "type": "bool"
        }
      ],
      "name": "NFTSaleStatusUpdated",
      "type": "event"
    },
    {
      "anonymous": false,
      "inputs": [
        {
          "indexed": true,
          "internalType": "uint256",
          "name": "tokenId",
          "type": "uint256"
        },
        {
          "indexed": true,
          "internalType": "address",
          "name": "buyer",
          "type": "address"
        },
        {
          "indexed": true,
          "internalType": "address",
          "name": "seller",
          "type": "address"
        },
        {
          "indexed": false,
          "internalType": "uint256",
          "name": "price",
          "type": "uint256"
        }
      ],
      "name": "NFTSold",
      "type": "event"
    },
    {
      "anonymous": false,
      "inputs": [
        {
          "indexed": true,
          "internalType": "address",
          "name": "from",
          "type": "address"
        },
        {
          "indexed": true,
          "internalType": "address",
          "name": "to",
          "type": "address"
        },
        {
          "indexed": true,
          "internalType": "uint256",
          "name": "tokenId",
          "type": "uint256"
        }
      ],
      "name": "Transfer",
      "type": "event"
    },
    {
      "inputs": [
        {
          "internalType": "address",
          "name": "to",
          "type": "address"
        },
        {
          "internalType": "uint256",
          "name": "tokenId",
          "type": "uint256"
        }
      ],
      "name": "approve",
      "outputs": [],
      "stateMutability": "nonpayable",
      "type": "function"
    },
    {
      "inputs": [
        {
          "internalType": "address",
          "name": "owner",
          "type": "address"
        }
      ],
      "name": "balanceOf",
      "outputs": [
        {
          "internalType": "uint256",
          "name": "",
          "type": "uint256"
        }
      ],
      "stateMutability": "view",
      "type": "function",
      "constant": true
    },
    {
      "inputs": [
        {
          "internalType": "uint256",
          "name": "tokenId",
          "type": "uint256"
        }
      ],
      "name": "getApproved",
      "outputs": [
        {
          "internalType": "address",
          "name": "",
          "type": "address"
        }
      ],
      "stateMutability": "view",
      "type": "function",
      "constant": true
    },
    {
      "inputs": [
        {
          "internalType": "address",
          "name": "owner",
          "type": "address"
        },
        {
          "internalType": "address",
          "name": "operator",
          "type": "address"
        }
      ],
      "name": "isApprovedForAll",
      "outputs": [
        {
          "internalType": "bool",
          "name": "",
          "type": "bool"
        }
      ],
      "stateMutability": "view",
      "type": "function",
      "constant": true
    },
    {
      "inputs": [],
      "name": "name",
      "outputs": [
        {
          "internalType": "string",
          "name": "",
          "type": "string"
        }
      ],
      "stateMutability": "view",
      "type": "function",
      "constant": true
    },
    {
      "inputs": [
        {
          "internalType": "uint256",
          "name": "tokenId",
          "type": "uint256"
        }
      ],
      "name": "ownerOf",
      "outputs": [
        {
          "internalType": "address",
          "name": "",
          "type": "address"
        }
      ],
      "stateMutability": "view",
      "type": "function",
      "constant": true
    },
    {
      "inputs": [
        {
          "internalType": "address",
          "name": "from",
          "type": "address"
        },
        {
          "internalType": "address",
          "name": "to",
          "type": "address"
        },
        {
          "internalType": "uint256",
          "name": "tokenId",
          "type": "uint256"
        }
      ],
      "name": "safeTransferFrom",
      "outputs": [],
      "stateMutability": "nonpayable",
      "type": "function"
    },
    {
      "inputs": [
        {
          "internalType": "address",
          "name": "from",
          "type": "address"
        },
        {
          "internalType": "address",
          "name": "to",
          "type": "address"
        },
        {
          "internalType": "uint256",
          "name": "tokenId",
          "type": "uint256"
        },
        {
          "internalType": "bytes",
          "name": "data",
          "type": "bytes"
        }
      ],
      "name": "safeTransferFrom",
      "outputs": [],
      "stateMutability": "nonpayable",
      "type": "function"
    },
    {
      "inputs": [
        {
          "internalType": "address",
          "name": "operator",
          "type": "address"
        },
        {
          "internalType": "bool",
          "name": "approved",
          "type": "bool"
        }
      ],
      "name": "setApprovalForAll",
      "outputs": [],
      "stateMutability": "nonpayable",
      "type": "function"
    },
    {
      "inputs": [
        {
          "internalType": "bytes4",
          "name": "interfaceId",
          "type": "bytes4"
        }
      ],
      "name": "supportsInterface",
      "outputs": [
        {
          "internalType": "bool",
          "name": "",
          "type": "bool"
        }
      ],
      "stateMutability": "view",
      "type": "function",
      "constant": true
    },
    {
      "inputs": [],
      "name": "symbol",
      "outputs": [
        {
          "internalType": "string",
          "name": "",
          "type": "string"
        }
      ],
      "stateMutability": "view",
      "type": "function",
      "constant": true
    },
    {
      "inputs": [
        {
          "internalType": "uint256",
          "name": "tokenId",
          "type": "uint256"
        }
      ],
      "name": "tokenURI",
      "outputs": [
        {
          "internalType": "string",
          "name": "",
          "type": "string"
        }
      ],
      "stateMutability": "view",
      "type": "function",
      "constant": true
    },
    {
      "inputs": [
        {
          "internalType": "address",
          "name": "from",
          "type": "address"
        },
        {
          "internalType": "address",
          "name": "to",
          "type": "address"
        },
        {
          "internalType": "uint256",
          "name": "tokenId",
          "type": "uint256"
        }
      ],
      "name": "transferFrom",
      "outputs": [],
      "stateMutability": "nonpayable",
      "type": "function"
    },
    {
      "inputs": [
        {
          "internalType": "address",
          "name": "owner",
          "type": "address"
        },
        {
          "internalType": "string",
          "name": "tokenURI",
          "type": "string"
        }
      ],
      "name": "createNFT",
      "outputs": [
        {
          "internalType": "uint256",
          "name": "",
          "type": "uint256"
        }
      ],
      "stateMutability": "nonpayable",
      "type": "function"
    },
    {
      "inputs": [
        {
          "internalType": "uint256",
          "name": "tokenId",
          "type": "uint256"
        },
        {
          "internalType": "uint256",
          "name": "price",
          "type": "uint256"
        }
      ],
      "name": "setNFTPrice",
      "outputs": [],
      "stateMutability": "nonpayable",
      "type": "function"
    },
    {
      "inputs": [
        {
          "internalType": "uint256",
          "name": "tokenId",
          "type": "uint256"
        },
        {
          "internalType": "bool",
          "name": "isForSale",
          "type": "bool"
        }
      ],
      "name": "setNFTForSale",
      "outputs": [],
      "stateMutability": "nonpayable",
      "type": "function"
    },
    {
      "inputs": [
        {
          "internalType": "uint256",
          "name": "tokenId",
          "type": "uint256"
        }
      ],
      "name": "buyNFT",
      "outputs": [],
      "stateMutability": "payable",
      "type": "function",
      "payable": true
    },
    {
      "inputs": [
        {
          "internalType": "address",
          "name": "owner",
          "type": "address"
        }
      ],
      "name": "getTokensOfOwner",
      "outputs": [
        {
          "internalType": "uint256[]",
          "name": "",
          "type": "uint256[]"
        }
      ],
      "stateMutability": "view",
      "type": "function",
      "constant": true
    },
    {
      "inputs": [
        {
          "internalType": "uint256",
          "name": "tokenId",
          "type": "uint256"
        }
      ],
      "name": "getNFTPrice",
      "outputs": [
        {
          "internalType": "uint256",
          "name": "",
          "type": "uint256"
        }
      ],
      "stateMutability": "view",
      "type": "function",
      "constant": true
    },
    {
      "inputs": [],
      "name": "getNextTokenId",
      "outputs": [
        {
          "internalType": "uint256",
          "name": "",
          "type": "uint256"
        }
      ],
      "stateMutability": "view",
      "type": "function",
      "constant": true
    },
    {
      "inputs": [
        {
          "internalType": "uint256",
          "name": "tokenId",
          "type": "uint256"
        }
      ],
      "name": "isNFTForSale",
      "outputs": [
        {
          "internalType": "bool",
          "name": "",
          "type": "bool"
        }
      ],
      "stateMutability": "view",
      "type": "function",
      "constant": true
    }
  ],
  "bytecode": "0x608060405234801562000010575f80fd5b506040518060400160405280600f81526020017f4d795669727475616c416e696d616c00000000000000000000000000000000008152506040518060400160405280600381526020017f4d56410000000000000000000000000000000000000000000000000000000000815250815f90816200008d91906200030c565b5080600190816200009f91906200030c565b505050620003f0565b5f81519050919050565b7f4e487b71000000000000000000000000000000000000000000000000000000005f52604160045260245ffd5b7f4e487b71000000000000000000000000000000000000000000000000000000005f52602260045260245ffd5b5f60028204905060018216806200012457607f821691505b6020821081036200013a5762000139620000df565b5b50919050565b5f819050815f5260205f209050919050565b5f6020601f8301049050919050565b5f82821b905092915050565b5f600883026200019e7fffffffffffffffffffffffffffffffffffffffffffffffffffffffffffffffff8262000161565b620001aa868362000161565b95508019841693508086168417925050509392505050565b5f819050919050565b5f819050919050565b5f620001f4620001ee620001e884620001c2565b620001cb565b620001c2565b9050919050565b5f819050919050565b6200020f83620001d4565b620002276200021e82620001fb565b8484546200016d565b825550505050565b5f90565b6200023d6200022f565b6200024a81848462000204565b505050565b5b818110156200027157620002655f8262000233565b60018101905062000250565b5050565b601f821115620002c0576200028a8162000140565b620002958462000152565b81016020851015620002a5578190505b620002bd620002b48562000152565b8301826200024f565b50505b505050565b5f82821c905092915050565b5f620002e25f1984600802620002c5565b1980831691505092915050565b5f620002fc8383620002d1565b9150826002028217905092915050565b6200031782620000a8565b67ffffffffffffffff811115620003335762000332620000b2565b5b6200033f82546200010c565b6200034c82828562000275565b5f60209050601f83116001811462000382575f84156200036d578287015190505b620003798582620002ef565b865550620003e8565b601f198416620003928662000140565b5f5b82811015620003bb5784890151825560018201915060208501945060208101905062000394565b86831015620003db5784890151620003d7601f891682620002d1565b8355505b6001600288020188555050505b505050505050565b61322680620003fe5f395ff3fe608060405260043610610129575f3560e01c80636352211e116100aa578063a56140331161006e578063a561403314610409578063b88d4fde14610445578063c87b56dd1461046d578063caa0f92a146104a9578063e7406558146104d3578063e985e9c5146104fb57610129565b80636352211e1461030357806370a082311461033f578063929761791461037b57806395d89b41146103b7578063a22cb465146103e157610129565b80631ce066c9116100f15780631ce066c91461021f57806323b872dd1461025b57806342842e0e1461028357806351ed8288146102ab5780635de6dc55146102c757610129565b806301ffc9a71461012d57806306fdde0314610169578063081812fc14610193578063095ea7b3146101cf57806313a31fc3146101f7575b5f80fd5b348015610138575f80fd5b50610153600480360381019061014e91906122ab565b610537565b60405161016091906122f0565b60405180910390f35b348015610174575f80fd5b5061017d610597565b60405161018a9190612393565b60405180910390f35b34801561019e575f80fd5b506101b960048036038101906101b491906123e6565b610626565b6040516101c69190612450565b60405180910390f35b3480156101da575f80fd5b506101f560048036038101906101f09190612493565b610641565b005b348015610202575f80fd5b5061021d600480360381019061021891906124fb565b610657565b005b34801561022a575f80fd5b50610245600480360381019061024091906123e6565b610795565b60405161025291906122f0565b60405180910390f35b348015610266575f80fd5b50610281600480360381019061027c9190612539565b6107bb565b005b34801561028e575f80fd5b506102a960048036038101906102a49190612539565b6108ba565b005b6102c560048036038101906102c091906123e6565b6108d9565b005b3480156102d2575f80fd5b506102ed60048036038101906102e89190612589565b610cfc565b6040516102fa919061266b565b60405180910390f35b34801561030e575f80fd5b50610329600480360381019061032491906123e6565b610d8f565b6040516103369190612450565b60405180910390f35b34801561034a575f80fd5b5061036560048036038101906103609190612589565b610da0565b604051610372919061269a565b60405180910390f35b348015610386575f80fd5b506103a1600480360381019061039c91906123e6565b610e56565b6040516103ae919061269a565b60405180910390f35b3480156103c2575f80fd5b506103cb610e70565b6040516103d89190612393565b60405180910390f35b3480156103ec575f80fd5b50610407600480360381019061040291906126b3565b610f00565b005b348015610414575f80fd5b5061042f600480360381019061042a919061281d565b610f16565b60405161043c919061269a565b60405180910390f35b348015610450575f80fd5b5061046b60048036038101906104669190612915565b610faf565b005b348015610478575f80fd5b50610493600480360381019061048e91906123e6565b610fcc565b6040516104a09190612393565b60405180910390f35b3480156104b4575f80fd5b506104bd6110d7565b6040516104ca919061269a565b60405180910390f35b3480156104de575f80fd5b506104f960048036038101906104f49190612995565b6110e0565b005b348015610506575f80fd5b50610521600480360381019061051c91906129d3565b6111a8565b60405161052e91906122f0565b60405180910390f35b5f634906490660e01b7bffffffffffffffffffffffffffffffffffffffffffffffffffffffff1916827bffffffffffffffffffffffffffffffffffffffffffffffffffffffff19161480610590575061058f82611236565b5b9050919050565b60605f80546105a590612a3e565b80601f01602080910402602001604051908101604052809291908181526020018280546105d190612a3e565b801561061c5780601f106105f35761010080835404028352916020019161061c565b820191905f5260205f20905b8154815290600101906020018083116105ff57829003601f168201915b5050505050905090565b5f61063082611317565b5061063a8261139d565b9050919050565b610653828261064e6113d6565b6113dd565b5050565b3373ffffffffffffffffffffffffffffffffffffffff1661067783610d8f565b73ffffffffffffffffffffffffffffffffffffffff16146106cd576040517f08c379a00000000000000000000000000000000000000000000000000000000081526004016106c490612ade565b60405180910390fd5b5f60085f8481526020019081526020015f205411610720576040517f08c379a000000000000000000000000000000000000000000000000000000000815260040161071790612b6c565b60405180910390fd5b8015610731576107303083610641565b5b8060095f8481526020019081526020015f205f6101000a81548160ff021916908315150217905550817f6473308f4f466787b028a9d598f65be9f0781bfa85410e0886904e17c6ba136a8260405161078991906122f0565b60405180910390a25050565b5f60095f8381526020019081526020015f205f9054906101000a900460ff169050919050565b5f73ffffffffffffffffffffffffffffffffffffffff168273ffffffffffffffffffffffffffffffffffffffff160361082b575f6040517f64a0ae920000000000000000000000000000000000000000000000000000000081526004016108229190612450565b60405180910390fd5b5f61083e83836108396113d6565b6113ef565b90508373ffffffffffffffffffffffffffffffffffffffff168173ffffffffffffffffffffffffffffffffffffffff16146108b4578382826040517f64283d7b0000000000000000000000000000000000000000000000000000000081526004016108ab93929190612b8a565b60405180910390fd5b50505050565b6108d483838360405180602001604052805f815250610faf565b505050565b60095f8281526020019081526020015f205f9054906101000a900460ff16610936576040517f08c379a000000000000000000000000000000000000000000000000000000000815260040161092d90612c09565b60405180910390fd5b60085f8281526020019081526020015f20543414610989576040517f08c379a000000000000000000000000000000000000000000000000000000000815260040161098090612c71565b60405180910390fd5b5f61099382610d8f565b90506109a08133846115fa565b8073ffffffffffffffffffffffffffffffffffffffff166108fc3490811502906040515f60405180830381858888f193505050501580156109e3573d5f803e3d5ffd5b505f805b600a5f8473ffffffffffffffffffffffffffffffffffffffff1673ffffffffffffffffffffffffffffffffffffffff1681526020019081526020015f2080549050811015610aa85783600a5f8573ffffffffffffffffffffffffffffffffffffffff1673ffffffffffffffffffffffffffffffffffffffff1681526020019081526020015f208281548110610a7f57610a7e612c8f565b5b905f5260205f20015403610a9557809150610aa8565b8080610aa090612ce9565b9150506109e7565b50600a5f8373ffffffffffffffffffffffffffffffffffffffff1673ffffffffffffffffffffffffffffffffffffffff1681526020019081526020015f206001600a5f8573ffffffffffffffffffffffffffffffffffffffff1673ffffffffffffffffffffffffffffffffffffffff1681526020019081526020015f2080549050610b339190612d30565b81548110610b4457610b43612c8f565b5b905f5260205f200154600a5f8473ffffffffffffffffffffffffffffffffffffffff1673ffffffffffffffffffffffffffffffffffffffff1681526020019081526020015f208281548110610b9c57610b9b612c8f565b5b905f5260205f200181905550600a5f8373ffffffffffffffffffffffffffffffffffffffff1673ffffffffffffffffffffffffffffffffffffffff1681526020019081526020015f20805480610bf557610bf4612d63565b5b600190038181905f5260205f20015f90559055600a5f3373ffffffffffffffffffffffffffffffffffffffff1673ffffffffffffffffffffffffffffffffffffffff1681526020019081526020015f2083908060018154018082558091505060019003905f5260205f20015f90919091909150555f60095f8581526020019081526020015f205f6101000a81548160ff0219169083151502179055508173ffffffffffffffffffffffffffffffffffffffff163373ffffffffffffffffffffffffffffffffffffffff16847f8562eb94748e30bb0071e932744ce902b460c683474fcb3bfd567ffa16b1afb234604051610cef919061269a565b60405180910390a4505050565b6060600a5f8373ffffffffffffffffffffffffffffffffffffffff1673ffffffffffffffffffffffffffffffffffffffff1681526020019081526020015f20805480602002602001604051908101604052809291908181526020018280548015610d8357602002820191905f5260205f20905b815481526020019060010190808311610d6f575b50505050509050919050565b5f610d9982611317565b9050919050565b5f8073ffffffffffffffffffffffffffffffffffffffff168273ffffffffffffffffffffffffffffffffffffffff1603610e11575f6040517f89c62b64000000000000000000000000000000000000000000000000000000008152600401610e089190612450565b60405180910390fd5b60035f8373ffffffffffffffffffffffffffffffffffffffff1673ffffffffffffffffffffffffffffffffffffffff1681526020019081526020015f20549050919050565b5f60085f8381526020019081526020015f20549050919050565b606060018054610e7f90612a3e565b80601f0160208091040260200160405190810160405280929190818152602001828054610eab90612a3e565b8015610ef65780601f10610ecd57610100808354040283529160200191610ef6565b820191905f5260205f20905b815481529060010190602001808311610ed957829003601f168201915b5050505050905090565b610f12610f0b6113d6565b8383611762565b5050565b5f8060075f815480929190610f2a90612ce9565b919050559050610f3a84826118cb565b610f4481846119be565b600a5f8573ffffffffffffffffffffffffffffffffffffffff1673ffffffffffffffffffffffffffffffffffffffff1681526020019081526020015f2081908060018154018082558091505060019003905f5260205f20015f90919091909150558091505092915050565b610fba8484846107bb565b610fc684848484611a18565b50505050565b6060610fd782611317565b505f60065f8481526020019081526020015f208054610ff590612a3e565b80601f016020809104026020016040519081016040528092919081815260200182805461102190612a3e565b801561106c5780601f106110435761010080835404028352916020019161106c565b820191905f5260205f20905b81548152906001019060200180831161104f57829003601f168201915b505050505090505f61107c611bca565b90505f8151036110905781925050506110d2565b5f825111156110c45780826040516020016110ac929190612dca565b604051602081830303815290604052925050506110d2565b6110cd84611be0565b925050505b919050565b5f600754905090565b3373ffffffffffffffffffffffffffffffffffffffff1661110083610d8f565b73ffffffffffffffffffffffffffffffffffffffff1614611156576040517f08c379a000000000000000000000000000000000000000000000000000000000815260040161114d90612e37565b60405180910390fd5b8060085f8481526020019081526020015f2081905550817f2847cfe8afe8bcd9ac540f0259739697ea019f65d44c8e76c8796b8ce52f7c318260405161119c919061269a565b60405180910390a25050565b5f60055f8473ffffffffffffffffffffffffffffffffffffffff1673ffffffffffffffffffffffffffffffffffffffff1681526020019081526020015f205f8373ffffffffffffffffffffffffffffffffffffffff1673ffffffffffffffffffffffffffffffffffffffff1681526020019081526020015f205f9054906101000a900460ff16905092915050565b5f7f80ac58cd000000000000000000000000000000000000000000000000000000007bffffffffffffffffffffffffffffffffffffffffffffffffffffffff1916827bffffffffffffffffffffffffffffffffffffffffffffffffffffffff1916148061130057507f5b5e139f000000000000000000000000000000000000000000000000000000007bffffffffffffffffffffffffffffffffffffffffffffffffffffffff1916827bffffffffffffffffffffffffffffffffffffffffffffffffffffffff1916145b80611310575061130f82611c46565b5b9050919050565b5f8061132283611caf565b90505f73ffffffffffffffffffffffffffffffffffffffff168173ffffffffffffffffffffffffffffffffffffffff160361139457826040517f7e27328900000000000000000000000000000000000000000000000000000000815260040161138b919061269a565b60405180910390fd5b80915050919050565b5f60045f8381526020019081526020015f205f9054906101000a900473ffffffffffffffffffffffffffffffffffffffff169050919050565b5f33905090565b6113ea8383836001611ce8565b505050565b5f806113fa84611caf565b90505f73ffffffffffffffffffffffffffffffffffffffff168373ffffffffffffffffffffffffffffffffffffffff161461143b5761143a818486611ea7565b5b5f73ffffffffffffffffffffffffffffffffffffffff168173ffffffffffffffffffffffffffffffffffffffff16146114c65761147a5f855f80611ce8565b600160035f8373ffffffffffffffffffffffffffffffffffffffff1673ffffffffffffffffffffffffffffffffffffffff1681526020019081526020015f205f82825403925050819055505b5f73ffffffffffffffffffffffffffffffffffffffff168573ffffffffffffffffffffffffffffffffffffffff161461154557600160035f8773ffffffffffffffffffffffffffffffffffffffff1673ffffffffffffffffffffffffffffffffffffffff1681526020019081526020015f205f82825401925050819055505b8460025f8681526020019081526020015f205f6101000a81548173ffffffffffffffffffffffffffffffffffffffff021916908373ffffffffffffffffffffffffffffffffffffffff160217905550838573ffffffffffffffffffffffffffffffffffffffff168273ffffffffffffffffffffffffffffffffffffffff167fddf252ad1be2c89b69c2b068fc378daa952ba7f163c4a11628f55a4df523b3ef60405160405180910390a4809150509392505050565b5f73ffffffffffffffffffffffffffffffffffffffff168273ffffffffffffffffffffffffffffffffffffffff160361166a575f6040517f64a0ae920000000000000000000000000000000000000000000000000000000081526004016116619190612450565b60405180910390fd5b5f61167683835f6113ef565b90505f73ffffffffffffffffffffffffffffffffffffffff168173ffffffffffffffffffffffffffffffffffffffff16036116e857816040517f7e2732890000000000000000000000000000000000000000000000000000000081526004016116df919061269a565b60405180910390fd5b8373ffffffffffffffffffffffffffffffffffffffff168173ffffffffffffffffffffffffffffffffffffffff161461175c578382826040517f64283d7b00000000000000000000000000000000000000000000000000000000815260040161175393929190612b8a565b60405180910390fd5b50505050565b5f73ffffffffffffffffffffffffffffffffffffffff168273ffffffffffffffffffffffffffffffffffffffff16036117d257816040517f5b08ba180000000000000000000000000000000000000000000000000000000081526004016117c99190612450565b60405180910390fd5b8060055f8573ffffffffffffffffffffffffffffffffffffffff1673ffffffffffffffffffffffffffffffffffffffff1681526020019081526020015f205f8473ffffffffffffffffffffffffffffffffffffffff1673ffffffffffffffffffffffffffffffffffffffff1681526020019081526020015f205f6101000a81548160ff0219169083151502179055508173ffffffffffffffffffffffffffffffffffffffff168373ffffffffffffffffffffffffffffffffffffffff167f17307eab39ab6107e8899845ad3d59bd9653f200f220920489ca2b5937696c31836040516118be91906122f0565b60405180910390a3505050565b5f73ffffffffffffffffffffffffffffffffffffffff168273ffffffffffffffffffffffffffffffffffffffff160361193b575f6040517f64a0ae920000000000000000000000000000000000000000000000000000000081526004016119329190612450565b60405180910390fd5b5f61194783835f6113ef565b90505f73ffffffffffffffffffffffffffffffffffffffff168173ffffffffffffffffffffffffffffffffffffffff16146119b9575f6040517f73c6ac6e0000000000000000000000000000000000000000000000000000000081526004016119b09190612450565b60405180910390fd5b505050565b8060065f8481526020019081526020015f2090816119dc9190612ff2565b507ff8e1a15aba9398e019f0b49df1a4fde98ee17ae345cb5f6b5e2c27f5033e8ce782604051611a0c919061269a565b60405180910390a15050565b5f8373ffffffffffffffffffffffffffffffffffffffff163b1115611bc4578273ffffffffffffffffffffffffffffffffffffffff1663150b7a02611a5b6113d6565b8685856040518563ffffffff1660e01b8152600401611a7d9493929190613113565b6020604051808303815f875af1925050508015611ab857506040513d601f19601f82011682018060405250810190611ab59190613171565b60015b611b39573d805f8114611ae6576040519150601f19603f3d011682016040523d82523d5f602084013e611aeb565b606091505b505f815103611b3157836040517f64a0ae92000000000000000000000000000000000000000000000000000000008152600401611b289190612450565b60405180910390fd5b805181602001fd5b63150b7a0260e01b7bffffffffffffffffffffffffffffffffffffffffffffffffffffffff1916817bffffffffffffffffffffffffffffffffffffffffffffffffffffffff191614611bc257836040517f64a0ae92000000000000000000000000000000000000000000000000000000008152600401611bb99190612450565b60405180910390fd5b505b50505050565b606060405180602001604052805f815250905090565b6060611beb82611317565b505f611bf5611bca565b90505f815111611c135760405180602001604052805f815250611c3e565b80611c1d84611f6a565b604051602001611c2e929190612dca565b6040516020818303038152906040525b915050919050565b5f7f01ffc9a7000000000000000000000000000000000000000000000000000000007bffffffffffffffffffffffffffffffffffffffffffffffffffffffff1916827bffffffffffffffffffffffffffffffffffffffffffffffffffffffff1916149050919050565b5f60025f8381526020019081526020015f205f9054906101000a900473ffffffffffffffffffffffffffffffffffffffff169050919050565b8080611d2057505f73ffffffffffffffffffffffffffffffffffffffff168273ffffffffffffffffffffffffffffffffffffffff1614155b15611e52575f611d2f84611317565b90505f73ffffffffffffffffffffffffffffffffffffffff168373ffffffffffffffffffffffffffffffffffffffff1614158015611d9957508273ffffffffffffffffffffffffffffffffffffffff168173ffffffffffffffffffffffffffffffffffffffff1614155b8015611dac5750611daa81846111a8565b155b15611dee57826040517fa9fbf51f000000000000000000000000000000000000000000000000000000008152600401611de59190612450565b60405180910390fd5b8115611e5057838573ffffffffffffffffffffffffffffffffffffffff168273ffffffffffffffffffffffffffffffffffffffff167f8c5be1e5ebec7d5bd14f71427d1e84f3dd0314c0f7b2291e5b200ac8c7c3b92560405160405180910390a45b505b8360045f8581526020019081526020015f205f6101000a81548173ffffffffffffffffffffffffffffffffffffffff021916908373ffffffffffffffffffffffffffffffffffffffff16021790555050505050565b611eb2838383612034565b611f65575f73ffffffffffffffffffffffffffffffffffffffff168373ffffffffffffffffffffffffffffffffffffffff1603611f2657806040517f7e273289000000000000000000000000000000000000000000000000000000008152600401611f1d919061269a565b60405180910390fd5b81816040517f177e802f000000000000000000000000000000000000000000000000000000008152600401611f5c92919061319c565b60405180910390fd5b505050565b60605f6001611f78846120f4565b0190505f8167ffffffffffffffff811115611f9657611f956126f9565b5b6040519080825280601f01601f191660200182016040528015611fc85781602001600182028036833780820191505090505b5090505f82602001820190505b600115612029578080600190039150507f3031323334353637383961626364656600000000000000000000000000000000600a86061a8153600a858161201e5761201d6131c3565b5b0494505f8503611fd5575b819350505050919050565b5f8073ffffffffffffffffffffffffffffffffffffffff168373ffffffffffffffffffffffffffffffffffffffff16141580156120eb57508273ffffffffffffffffffffffffffffffffffffffff168473ffffffffffffffffffffffffffffffffffffffff1614806120ac57506120ab84846111a8565b5b806120ea57508273ffffffffffffffffffffffffffffffffffffffff166120d28361139d565b73ffffffffffffffffffffffffffffffffffffffff16145b5b90509392505050565b5f805f90507a184f03e93ff9f4daa797ed6e38ed64bf6a1f0100000000000000008310612150577a184f03e93ff9f4daa797ed6e38ed64bf6a1f0100000000000000008381612146576121456131c3565b5b0492506040810190505b6d04ee2d6d415b85acef8100000000831061218d576d04ee2d6d415b85acef81000000008381612183576121826131c3565b5b0492506020810190505b662386f26fc1000083106121bc57662386f26fc1000083816121b2576121b16131c3565b5b0492506010810190505b6305f5e10083106121e5576305f5e10083816121db576121da6131c3565b5b0492506008810190505b612710831061220a576127108381612200576121ff6131c3565b5b0492506004810190505b6064831061222d5760648381612223576122226131c3565b5b0492506002810190505b600a831061223c576001810190505b80915050919050565b5f604051905090565b5f80fd5b5f80fd5b5f7fffffffff0000000000000000000000000000000000000000000000000000000082169050919050565b61228a81612256565b8114612294575f80fd5b50565b5f813590506122a581612281565b92915050565b5f602082840312156122c0576122bf61224e565b5b5f6122cd84828501612297565b91505092915050565b5f8115159050919050565b6122ea816122d6565b82525050565b5f6020820190506123035f8301846122e1565b92915050565b5f81519050919050565b5f82825260208201905092915050565b5f5b83811015612340578082015181840152602081019050612325565b5f8484015250505050565b5f601f19601f8301169050919050565b5f61236582612309565b61236f8185612313565b935061237f818560208601612323565b6123888161234b565b840191505092915050565b5f6020820190508181035f8301526123ab818461235b565b905092915050565b5f819050919050565b6123c5816123b3565b81146123cf575f80fd5b50565b5f813590506123e0816123bc565b92915050565b5f602082840312156123fb576123fa61224e565b5b5f612408848285016123d2565b91505092915050565b5f73ffffffffffffffffffffffffffffffffffffffff82169050919050565b5f61243a82612411565b9050919050565b61244a81612430565b82525050565b5f6020820190506124635f830184612441565b92915050565b61247281612430565b811461247c575f80fd5b50565b5f8135905061248d81612469565b92915050565b5f80604083850312156124a9576124a861224e565b5b5f6124b68582860161247f565b92505060206124c7858286016123d2565b9150509250929050565b6124da816122d6565b81146124e4575f80fd5b50565b5f813590506124f5816124d1565b92915050565b5f80604083850312156125115761251061224e565b5b5f61251e858286016123d2565b925050602061252f858286016124e7565b9150509250929050565b5f805f606084860312156125505761254f61224e565b5b5f61255d8682870161247f565b935050602061256e8682870161247f565b925050604061257f868287016123d2565b9150509250925092565b5f6020828403121561259e5761259d61224e565b5b5f6125ab8482850161247f565b91505092915050565b5f81519050919050565b5f82825260208201905092915050565b5f819050602082019050919050565b6125e6816123b3565b82525050565b5f6125f783836125dd565b60208301905092915050565b5f602082019050919050565b5f612619826125b4565b61262381856125be565b935061262e836125ce565b805f5b8381101561265e57815161264588826125ec565b975061265083612603565b925050600181019050612631565b5085935050505092915050565b5f6020820190508181035f830152612683818461260f565b905092915050565b612694816123b3565b82525050565b5f6020820190506126ad5f83018461268b565b92915050565b5f80604083850312156126c9576126c861224e565b5b5f6126d68582860161247f565b92505060206126e7858286016124e7565b9150509250929050565b5f80fd5b5f80fd5b7f4e487b71000000000000000000000000000000000000000000000000000000005f52604160045260245ffd5b61272f8261234b565b810181811067ffffffffffffffff8211171561274e5761274d6126f9565b5b80604052505050565b5f612760612245565b905061276c8282612726565b919050565b5f67ffffffffffffffff82111561278b5761278a6126f9565b5b6127948261234b565b9050602081019050919050565b828183375f83830152505050565b5f6127c16127bc84612771565b612757565b9050828152602081018484840111156127dd576127dc6126f5565b5b6127e88482856127a1565b509392505050565b5f82601f830112612804576128036126f1565b5b81356128148482602086016127af565b91505092915050565b5f80604083850312156128335761283261224e565b5b5f6128408582860161247f565b925050602083013567ffffffffffffffff81111561286157612860612252565b5b61286d858286016127f0565b9150509250929050565b5f67ffffffffffffffff821115612891576128906126f9565b5b61289a8261234b565b9050602081019050919050565b5f6128b96128b484612877565b612757565b9050828152602081018484840111156128d5576128d46126f5565b5b6128e08482856127a1565b509392505050565b5f82601f8301126128fc576128fb6126f1565b5b813561290c8482602086016128a7565b91505092915050565b5f805f806080858703121561292d5761292c61224e565b5b5f61293a8782880161247f565b945050602061294b8782880161247f565b935050604061295c878288016123d2565b925050606085013567ffffffffffffffff81111561297d5761297c612252565b5b612989878288016128e8565b91505092959194509250565b5f80604083850312156129ab576129aa61224e565b5b5f6129b8858286016123d2565b92505060206129c9858286016123d2565b9150509250929050565b5f80604083850312156129e9576129e861224e565b5b5f6129f68582860161247f565b9250506020612a078582860161247f565b9150509250929050565b7f4e487b71000000000000000000000000000000000000000000000000000000005f52602260045260245ffd5b5f6002820490506001821680612a5557607f821691505b602082108103612a6857612a67612a11565b5b50919050565b7f4f6e6c79206f776e65722063616e20736574207468652073616c6520737461745f8201527f7573000000000000000000000000000000000000000000000000000000000000602082015250565b5f612ac8602283612313565b9150612ad382612a6e565b604082019050919050565b5f6020820190508181035f830152612af581612abc565b9050919050565b7f4e46542070726963652073686f756c642062652067726561746572207468616e5f8201527f2030000000000000000000000000000000000000000000000000000000000000602082015250565b5f612b56602283612313565b9150612b6182612afc565b604082019050919050565b5f6020820190508181035f830152612b8381612b4a565b9050919050565b5f606082019050612b9d5f830186612441565b612baa602083018561268b565b612bb76040830184612441565b949350505050565b7f4e4654206973206e6f7420666f722073616c65000000000000000000000000005f82015250565b5f612bf3601383612313565b9150612bfe82612bbf565b602082019050919050565b5f6020820190508181035f830152612c2081612be7565b9050919050565b7f496e636f72726563742045746865722073656e740000000000000000000000005f82015250565b5f612c5b601483612313565b9150612c6682612c27565b602082019050919050565b5f6020820190508181035f830152612c8881612c4f565b9050919050565b7f4e487b71000000000000000000000000000000000000000000000000000000005f52603260045260245ffd5b7f4e487b71000000000000000000000000000000000000000000000000000000005f52601160045260245ffd5b5f612cf3826123b3565b91507fffffffffffffffffffffffffffffffffffffffffffffffffffffffffffffffff8203612d2557612d24612cbc565b5b600182019050919050565b5f612d3a826123b3565b9150612d45836123b3565b9250828203905081811115612d5d57612d5c612cbc565b5b92915050565b7f4e487b71000000000000000000000000000000000000000000000000000000005f52603160045260245ffd5b5f81905092915050565b5f612da482612309565b612dae8185612d90565b9350612dbe818560208601612323565b80840191505092915050565b5f612dd58285612d9a565b9150612de18284612d9a565b91508190509392505050565b7f4f6e6c79206f776e65722063616e2073657420746865207072696365000000005f82015250565b5f612e21601c83612313565b9150612e2c82612ded565b602082019050919050565b5f6020820190508181035f830152612e4e81612e15565b9050919050565b5f819050815f5260205f209050919050565b5f6020601f8301049050919050565b5f82821b905092915050565b5f60088302612eb17fffffffffffffffffffffffffffffffffffffffffffffffffffffffffffffffff82612e76565b612ebb8683612e76565b95508019841693508086168417925050509392505050565b5f819050919050565b5f612ef6612ef1612eec846123b3565b612ed3565b6123b3565b9050919050565b5f819050919050565b612f0f83612edc565b612f23612f1b82612efd565b848454612e82565b825550505050565b5f90565b612f37612f2b565b612f42818484612f06565b505050565b5b81811015612f6557612f5a5f82612f2f565b600181019050612f48565b5050565b601f821115612faa57612f7b81612e55565b612f8484612e67565b81016020851015612f93578190505b612fa7612f9f85612e67565b830182612f47565b50505b505050565b5f82821c905092915050565b5f612fca5f1984600802612faf565b1980831691505092915050565b5f612fe28383612fbb565b9150826002028217905092915050565b612ffb82612309565b67ffffffffffffffff811115613014576130136126f9565b5b61301e8254612a3e565b613029828285612f69565b5f60209050601f83116001811461305a575f8415613048578287015190505b6130528582612fd7565b8655506130b9565b601f19841661306886612e55565b5f5b8281101561308f5784890151825560018201915060208501945060208101905061306a565b868310156130ac57848901516130a8601f891682612fbb565b8355505b6001600288020188555050505b505050505050565b5f81519050919050565b5f82825260208201905092915050565b5f6130e5826130c1565b6130ef81856130cb565b93506130ff818560208601612323565b6131088161234b565b840191505092915050565b5f6080820190506131265f830187612441565b6131336020830186612441565b613140604083018561268b565b818103606083015261315281846130db565b905095945050505050565b5f8151905061316b81612281565b92915050565b5f602082840312156131865761318561224e565b5b5f6131938482850161315d565b91505092915050565b5f6040820190506131af5f830185612441565b6131bc602083018461268b565b9392505050565b7f4e487b71000000000000000000000000000000000000000000000000000000005f52601260045260245ffdfea2646970667358221220a77c5dcb0470da2cb984cbbe27f199e492b4cb3e39f109f0c36128b3e1c1cb1e64736f6c63430008150033",
  "immutableReferences": {},
  "source": "// SPDX-License-Identifier: MIT\r\npragma solidity ^0.8.20;\r\n\r\nimport {ERC721URIStorage} from \"@openzeppelin/contracts/token/ERC721/extensions/ERC721URIStorage.sol\";\r\nimport {ERC721} from \"@openzeppelin/contracts/token/ERC721/ERC721.sol\";\r\n\r\ncontract MvaV1Market is ERC721URIStorage {\r\n    uint256 private _nextTokenId;\r\n    mapping(uint256 => uint256) private _nftPrices;\r\n    mapping(uint256 => bool) private _isForSale;\r\n    mapping(address => uint256[]) private _ownedTokens;\r\n\r\n    event NFTPriceUpdated(uint256 indexed tokenId, uint256 price);\r\n    event NFTSaleStatusUpdated(uint256 indexed tokenId, bool isForSale);\r\n    event NFTSold(uint256 indexed tokenId, address indexed buyer, address indexed seller, uint256 price);\r\n\r\n    constructor() ERC721(\"MyVirtualAnimal\", \"MVA\"){}\r\n\r\n    // NFT Minting\r\n    function createNFT(address owner, string memory tokenURI)\r\n        public\r\n        returns (uint256)\r\n    {\r\n        uint256 tokenId = _nextTokenId++;\r\n        _mint(owner, tokenId);\r\n        _setTokenURI(tokenId, tokenURI);\r\n        _ownedTokens[owner].push(tokenId);\r\n\r\n        return tokenId;\r\n    }\r\n\r\n    // set NFT Price\r\n    function setNFTPrice(uint256 tokenId, uint256 price) public {\r\n        require(ownerOf(tokenId) == msg.sender, \"Only owner can set the price\");\r\n        _nftPrices[tokenId] = price;\r\n        emit NFTPriceUpdated(tokenId, price);\r\n    }\r\n\r\n    function setNFTForSale(uint256 tokenId, bool isForSale) public {\r\n        require(ownerOf(tokenId) == msg.sender, \"Only owner can set the sale status\");\r\n        require(_nftPrices[tokenId] > 0, \"NFT price should be greater than 0\");\r\n        if (isForSale) approve(address(this), tokenId);\r\n        _isForSale[tokenId] = isForSale;\r\n        emit NFTSaleStatusUpdated(tokenId, isForSale);\r\n    }\r\n\r\n    function buyNFT(uint256 tokenId) public payable {\r\n        require(_isForSale[tokenId], \"NFT is not for sale\");\r\n        require(msg.value == _nftPrices[tokenId], \"Incorrect Ether sent\");\r\n\r\n        address seller = ownerOf(tokenId);\r\n        _transfer(seller, msg.sender, tokenId);\r\n        payable(seller).transfer(msg.value);\r\n        \r\n        uint256 indexToRemove = 0;\r\n        for(uint256 i = 0; i < _ownedTokens[seller].length; i++) {\r\n            if(_ownedTokens[seller][i] == tokenId) {\r\n                indexToRemove = i;\r\n                break;\r\n            }\r\n        }\r\n        _ownedTokens[seller][indexToRemove] = _ownedTokens[seller][_ownedTokens[seller].length - 1];\r\n        _ownedTokens[seller].pop();\r\n        _ownedTokens[msg.sender].push(tokenId);\r\n\r\n        _isForSale[tokenId] = false;\r\n        emit NFTSold(tokenId, msg.sender, seller, msg.value);\r\n    }\r\n\r\n    function getTokensOfOwner(address owner) public view returns (uint256[] memory) {\r\n        return _ownedTokens[owner];\r\n    }\r\n\r\n    function getNFTPrice(uint256 tokenId) public view returns (uint256) {\r\n        return _nftPrices[tokenId];\r\n    }\r\n\r\n    function getNextTokenId() public view returns (uint256) {\r\n        return _nextTokenId;\r\n    }\r\n\r\n    function isNFTForSale(uint256 tokenId) public view returns (bool) {\r\n        return _isForSale[tokenId];\r\n    }\r\n}",
  "sourcePath": "C:\\Users\\USER\\VsProject\\my-virtual-animal-truffle\\contracts\\MvaV1Market.sol",
  "compiler": {
    "name": "solc",
    "version": "0.8.21+commit.d9974bed.Emscripten.clang"
  },
  "schemaVersion": "3.4.15",
  "updatedAt": "2023-10-09T06:41:02.767Z",
  "networkType": "ethereum",
  "devdoc": {
    "errors": {
      "ERC721IncorrectOwner(address,uint256,address)": [
        {
          "details": "Indicates an error related to the ownership over a particular token. Used in transfers.",
          "params": {
            "owner": "Address of the current owner of a token.",
            "sender": "Address whose tokens are being transferred.",
            "tokenId": "Identifier number of a token."
          }
        }
      ],
      "ERC721InsufficientApproval(address,uint256)": [
        {
          "details": "Indicates a failure with the `operator`s approval. Used in transfers.",
          "params": {
            "operator": "Address that may be allowed to operate on tokens without being their owner.",
            "tokenId": "Identifier number of a token."
          }
        }
      ],
      "ERC721InvalidApprover(address)": [
        {
          "details": "Indicates a failure with the `approver` of a token to be approved. Used in approvals.",
          "params": {
            "approver": "Address initiating an approval operation."
          }
        }
      ],
      "ERC721InvalidOperator(address)": [
        {
          "details": "Indicates a failure with the `operator` to be approved. Used in approvals.",
          "params": {
            "operator": "Address that may be allowed to operate on tokens without being their owner."
          }
        }
      ],
      "ERC721InvalidOwner(address)": [
        {
          "details": "Indicates that an address can't be an owner. For example, `address(0)` is a forbidden owner in EIP-20. Used in balance queries.",
          "params": {
            "owner": "Address of the current owner of a token."
          }
        }
      ],
      "ERC721InvalidReceiver(address)": [
        {
          "details": "Indicates a failure with the token `receiver`. Used in transfers.",
          "params": {
            "receiver": "Address to which tokens are being transferred."
          }
        }
      ],
      "ERC721InvalidSender(address)": [
        {
          "details": "Indicates a failure with the token `sender`. Used in transfers.",
          "params": {
            "sender": "Address whose tokens are being transferred."
          }
        }
      ],
      "ERC721NonexistentToken(uint256)": [
        {
          "details": "Indicates a `tokenId` whose `owner` is the zero address.",
          "params": {
            "tokenId": "Identifier number of a token."
          }
        }
      ]
    },
    "events": {
      "Approval(address,address,uint256)": {
        "details": "Emitted when `owner` enables `approved` to manage the `tokenId` token."
      },
      "ApprovalForAll(address,address,bool)": {
        "details": "Emitted when `owner` enables or disables (`approved`) `operator` to manage all of its assets."
      },
      "BatchMetadataUpdate(uint256,uint256)": {
        "details": "This event emits when the metadata of a range of tokens is changed. So that the third-party platforms such as NFT market could timely update the images and related attributes of the NFTs."
      },
      "MetadataUpdate(uint256)": {
        "details": "This event emits when the metadata of a token is changed. So that the third-party platforms such as NFT market could timely update the images and related attributes of the NFT."
      },
      "Transfer(address,address,uint256)": {
        "details": "Emitted when `tokenId` token is transferred from `from` to `to`."
      }
    },
    "kind": "dev",
    "methods": {
      "approve(address,uint256)": {
        "details": "See {IERC721-approve}."
      },
      "balanceOf(address)": {
        "details": "See {IERC721-balanceOf}."
      },
      "getApproved(uint256)": {
        "details": "See {IERC721-getApproved}."
      },
      "isApprovedForAll(address,address)": {
        "details": "See {IERC721-isApprovedForAll}."
      },
      "name()": {
        "details": "See {IERC721Metadata-name}."
      },
      "ownerOf(uint256)": {
        "details": "See {IERC721-ownerOf}."
      },
      "safeTransferFrom(address,address,uint256)": {
        "details": "See {IERC721-safeTransferFrom}."
      },
      "safeTransferFrom(address,address,uint256,bytes)": {
        "details": "See {IERC721-safeTransferFrom}."
      },
      "setApprovalForAll(address,bool)": {
        "details": "See {IERC721-setApprovalForAll}."
      },
      "supportsInterface(bytes4)": {
        "details": "See {IERC165-supportsInterface}"
      },
      "symbol()": {
        "details": "See {IERC721Metadata-symbol}."
      },
      "tokenURI(uint256)": {
        "details": "See {IERC721Metadata-tokenURI}."
      },
      "transferFrom(address,address,uint256)": {
        "details": "See {IERC721-transferFrom}."
      }
    },
    "version": 1
  },
  "userdoc": {
    "kind": "user",
    "methods": {},
    "version": 1
  }
}